{
  "_format": "hh3-artifact-1",
  "contractName": "MediaVerify",
  "sourceName": "contracts/MediaVerify.sol",
  "abi": [
    {
      "inputs": [
        {
          "internalType": "string",
          "name": "hash",
          "type": "string"
        },
        {
          "internalType": "string",
          "name": "result",
          "type": "string"
        }
      ],
      "name": "storeMedia",
      "outputs": [],
      "stateMutability": "nonpayable",
      "type": "function"
    },
    {
      "inputs": [
        {
          "internalType": "string",
          "name": "hash",
          "type": "string"
        }
      ],
      "name": "verifyMedia",
      "outputs": [
        {
          "internalType": "string",
          "name": "",
          "type": "string"
        }
      ],
      "stateMutability": "view",
      "type": "function"
    }
  ],
  "bytecode": "0x608060405234801561000f575f80fd5b5061075c8061001d5f395ff3fe608060405234801561000f575f80fd5b5060043610610034575f3560e01c806397f5845914610038578063ffa9947b14610068575b5f80fd5b610052600480360381019061004d91906102ad565b610084565b60405161005f919061036e565b60405180910390f35b610082600480360381019061007d919061038e565b610131565b005b60605f82604051610095919061043e565b908152602001604051809103902080546100ae90610481565b80601f01602080910402602001604051908101604052809291908181526020018280546100da90610481565b80156101255780601f106100fc57610100808354040283529160200191610125565b820191905f5260205f20905b81548152906001019060200180831161010857829003601f168201915b50505050509050919050565b805f83604051610141919061043e565b9081526020016040518091039020908161015b9190610657565b505050565b5f604051905090565b5f80fd5b5f80fd5b5f80fd5b5f80fd5b5f601f19601f8301169050919050565b7f4e487b71000000000000000000000000000000000000000000000000000000005f52604160045260245ffd5b6101bf82610179565b810181811067ffffffffffffffff821117156101de576101dd610189565b5b80604052505050565b5f6101f0610160565b90506101fc82826101b6565b919050565b5f67ffffffffffffffff82111561021b5761021a610189565b5b61022482610179565b9050602081019050919050565b828183375f83830152505050565b5f61025161024c84610201565b6101e7565b90508281526020810184848401111561026d5761026c610175565b5b610278848285610231565b509392505050565b5f82601f83011261029457610293610171565b5b81356102a484826020860161023f565b91505092915050565b5f602082840312156102c2576102c1610169565b5b5f82013567ffffffffffffffff8111156102df576102de61016d565b5b6102eb84828501610280565b91505092915050565b5f81519050919050565b5f82825260208201905092915050565b5f5b8381101561032b578082015181840152602081019050610310565b5f8484015250505050565b5f610340826102f4565b61034a81856102fe565b935061035a81856020860161030e565b61036381610179565b840191505092915050565b5f6020820190508181035f8301526103868184610336565b905092915050565b5f80604083850312156103a4576103a3610169565b5b5f83013567ffffffffffffffff8111156103c1576103c061016d565b5b6103cd85828601610280565b925050602083013567ffffffffffffffff8111156103ee576103ed61016d565b5b6103fa85828601610280565b9150509250929050565b5f81905092915050565b5f610418826102f4565b6104228185610404565b935061043281856020860161030e565b80840191505092915050565b5f610449828461040e565b915081905092915050565b7f4e487b71000000000000000000000000000000000000000000000000000000005f52602260045260245ffd5b5f600282049050600182168061049857607f821691505b6020821081036104ab576104aa610454565b5b50919050565b5f819050815f5260205f209050919050565b5f6020601f8301049050919050565b5f82821b905092915050565b5f6008830261050d7fffffffffffffffffffffffffffffffffffffffffffffffffffffffffffffffff826104d2565b61051786836104d2565b95508019841693508086168417925050509392505050565b5f819050919050565b5f819050919050565b5f61055b6105566105518461052f565b610538565b61052f565b9050919050565b5f819050919050565b61057483610541565b61058861058082610562565b8484546104de565b825550505050565b5f90565b61059c610590565b6105a781848461056b565b505050565b5b818110156105ca576105bf5f82610594565b6001810190506105ad565b5050565b601f82111561060f576105e0816104b1565b6105e9846104c3565b810160208510156105f8578190505b61060c610604856104c3565b8301826105ac565b50505b505050565b5f82821c905092915050565b5f61062f5f1984600802610614565b1980831691505092915050565b5f6106478383610620565b9150826002028217905092915050565b610660826102f4565b67ffffffffffffffff81111561067957610678610189565b5b6106838254610481565b61068e8282856105ce565b5f60209050601f8311600181146106bf575f84156106ad578287015190505b6106b7858261063c565b86555061071e565b601f1984166106cd866104b1565b5f5b828110156106f4578489015182556001820191506020850194506020810190506106cf565b86831015610711578489015161070d601f891682610620565b8355505b6001600288020188555050505b50505050505056fea2646970667358221220715d6d5e38109e1583001b78df6eb439f268e3197ac29b1b3f5d6229b7b88ba664736f6c63430008140033",
  "linkReferences": {},
  "deployedLinkReferences": {},
  "immutableReferences": {},
  "inputSourceName": "project/contracts/MediaVerify.sol",
  "buildInfoId": "solc-0_8_20-2e3cac532e2ca186a63265832b62b1463bff14a2"
}