{
  "_format": "hh3-artifact-1",
  "contractName": "MediaVerify",
  "sourceName": "contracts/MediaVerify.sol",
  "abi": [
    {
      "inputs": [
        {
          "internalType": "string",
          "name": "",
          "type": "string"
        }
      ],
      "name": "mediaRecords",
      "outputs": [
        {
          "internalType": "string",
          "name": "hash",
          "type": "string"
        },
        {
          "internalType": "string",
          "name": "result",
          "type": "string"
        },
        {
          "internalType": "uint256",
          "name": "timestamp",
          "type": "uint256"
        }
      ],
      "stateMutability": "view",
      "type": "function"
    },
    {
      "inputs": [
        {
          "internalType": "string",
          "name": "_hash",
          "type": "string"
        },
        {
          "internalType": "string",
          "name": "_result",
          "type": "string"
        }
      ],
      "name": "storeMedia",
      "outputs": [],
      "stateMutability": "nonpayable",
      "type": "function"
    },
    {
      "inputs": [
        {
          "internalType": "string",
          "name": "_hash",
          "type": "string"
        }
      ],
      "name": "verifyMedia",
      "outputs": [
        {
          "internalType": "string",
          "name": "",
          "type": "string"
        },
        {
          "internalType": "uint256",
          "name": "",
          "type": "uint256"
        }
      ],
      "stateMutability": "view",
      "type": "function"
    }
  ],
  "bytecode": "0x608060405234801561000f575f80fd5b50610a458061001d5f395ff3fe608060405234801561000f575f80fd5b506004361061003f575f3560e01c806397f5845914610043578063e4db7f8e14610074578063ffa9947b146100a6575b5f80fd5b61005d60048036038101906100589190610536565b6100c2565b60405161006b92919061060f565b60405180910390f35b61008e60048036038101906100899190610536565b61022d565b60405161009d9392919061063d565b60405180910390f35b6100c060048036038101906100bb9190610680565b610376565b005b60605f805f846040516100d59190610730565b90815260200160405180910390206040518060600160405290815f820180546100fd90610773565b80601f016020809104026020016040519081016040528092919081815260200182805461012990610773565b80156101745780601f1061014b57610100808354040283529160200191610174565b820191905f5260205f20905b81548152906001019060200180831161015757829003601f168201915b5050505050815260200160018201805461018d90610773565b80601f01602080910402602001604051908101604052809291908181526020018280546101b990610773565b80156102045780601f106101db57610100808354040283529160200191610204565b820191905f5260205f20905b8154815290600101906020018083116101e757829003601f168201915b505050505081526020016002820154815250509050806020015181604001519250925050915091565b5f818051602081018201805184825260208301602085012081835280955050505050505f91509050805f01805461026390610773565b80601f016020809104026020016040519081016040528092919081815260200182805461028f90610773565b80156102da5780601f106102b1576101008083540402835291602001916102da565b820191905f5260205f20905b8154815290600101906020018083116102bd57829003601f168201915b5050505050908060010180546102ef90610773565b80601f016020809104026020016040519081016040528092919081815260200182805461031b90610773565b80156103665780601f1061033d57610100808354040283529160200191610366565b820191905f5260205f20905b81548152906001019060200180831161034957829003601f168201915b5050505050908060020154905083565b6040518060600160405280838152602001828152602001428152505f836040516103a09190610730565b90815260200160405180910390205f820151815f0190816103c19190610940565b5060208201518160010190816103d79190610940565b50604082015181600201559050505050565b5f604051905090565b5f80fd5b5f80fd5b5f80fd5b5f80fd5b5f601f19601f8301169050919050565b7f4e487b71000000000000000000000000000000000000000000000000000000005f52604160045260245ffd5b61044882610402565b810181811067ffffffffffffffff8211171561046757610466610412565b5b80604052505050565b5f6104796103e9565b9050610485828261043f565b919050565b5f67ffffffffffffffff8211156104a4576104a3610412565b5b6104ad82610402565b9050602081019050919050565b828183375f83830152505050565b5f6104da6104d58461048a565b610470565b9050828152602081018484840111156104f6576104f56103fe565b5b6105018482856104ba565b509392505050565b5f82601f83011261051d5761051c6103fa565b5b813561052d8482602086016104c8565b91505092915050565b5f6020828403121561054b5761054a6103f2565b5b5f82013567ffffffffffffffff811115610568576105676103f6565b5b61057484828501610509565b91505092915050565b5f81519050919050565b5f82825260208201905092915050565b5f5b838110156105b4578082015181840152602081019050610599565b5f8484015250505050565b5f6105c98261057d565b6105d38185610587565b93506105e3818560208601610597565b6105ec81610402565b840191505092915050565b5f819050919050565b610609816105f7565b82525050565b5f6040820190508181035f83015261062781856105bf565b90506106366020830184610600565b9392505050565b5f6060820190508181035f83015261065581866105bf565b9050818103602083015261066981856105bf565b90506106786040830184610600565b949350505050565b5f8060408385031215610696576106956103f2565b5b5f83013567ffffffffffffffff8111156106b3576106b26103f6565b5b6106bf85828601610509565b925050602083013567ffffffffffffffff8111156106e0576106df6103f6565b5b6106ec85828601610509565b9150509250929050565b5f81905092915050565b5f61070a8261057d565b61071481856106f6565b9350610724818560208601610597565b80840191505092915050565b5f61073b8284610700565b915081905092915050565b7f4e487b71000000000000000000000000000000000000000000000000000000005f52602260045260245ffd5b5f600282049050600182168061078a57607f821691505b60208210810361079d5761079c610746565b5b50919050565b5f819050815f5260205f209050919050565b5f6020601f8301049050919050565b5f82821b905092915050565b5f600883026107ff7fffffffffffffffffffffffffffffffffffffffffffffffffffffffffffffffff826107c4565b61080986836107c4565b95508019841693508086168417925050509392505050565b5f819050919050565b5f61084461083f61083a846105f7565b610821565b6105f7565b9050919050565b5f819050919050565b61085d8361082a565b6108716108698261084b565b8484546107d0565b825550505050565b5f90565b610885610879565b610890818484610854565b505050565b5b818110156108b3576108a85f8261087d565b600181019050610896565b5050565b601f8211156108f8576108c9816107a3565b6108d2846107b5565b810160208510156108e1578190505b6108f56108ed856107b5565b830182610895565b50505b505050565b5f82821c905092915050565b5f6109185f19846008026108fd565b1980831691505092915050565b5f6109308383610909565b9150826002028217905092915050565b6109498261057d565b67ffffffffffffffff81111561096257610961610412565b5b61096c8254610773565b6109778282856108b7565b5f60209050601f8311600181146109a8575f8415610996578287015190505b6109a08582610925565b865550610a07565b601f1984166109b6866107a3565b5f5b828110156109dd578489015182556001820191506020850194506020810190506109b8565b868310156109fa57848901516109f6601f891682610909565b8355505b6001600288020188555050505b50505050505056fea26469706673582212206aec063ff868f7c329129fed0a0b85dbdcc0c98966db0a26ebd4f92125fa8e2f64736f6c63430008140033",
  "linkReferences": {},
  "deployedLinkReferences": {},
  "immutableReferences": {},
  "inputSourceName": "project/contracts/MediaVerify.sol",
  "buildInfoId": "solc-0_8_20-c67498166344978113ffad52ec8a34ffb265caf9"
}